:100000001AC1000048C1000046C1000044C1000000
:1000100042C1000040C100003EC100003CC10000E0
:100020003AC1000038C1000036C1000034C10000F0
:1000300032C1000030C100002EC100002CC1000000
:100040002AC1000028C1000026C1000024C1000010
:1000500022C1000020C100001EC1000055C20000E6
:100060001AC1000021C6000055C6000014C10000DE
:1000700012C1000010C100000EC100000CC1000040
:100080000AC1000008C1000006C1000004C1000050
:1000900002C1000000C10000FEC00000FCC0000062
:1000A000FAC00000F8C00000F6C00000F4C0000074
:1000B000F2C00000F0C00000EEC00000ECC0000084
:1000C000EAC00000E8C00000E6C00000E4C0000094
:1000D000E2C00000E0C00000DEC00000DCC00000A4
:1000E000DAC00000840389038E039803A2031B0473
:1000F000AC03B403BC03C603D003DA03E903F30380
:100100001B04FD03070411043C043F042E043204C5
:1001100038047604430447044D04510455045B0439
:100120005F046304760469046D04710400000A0B23
:1001300002090C0D0E080703040100000000000076
:1001400000000000000000000000000000000000AF
:10015000000000000000000012111000000000006C
:10016000000000000000000000000000000000008F
:1001700000000102102020080810204010204080BC
:10018000020102010804020101020408102040805B
:1001900080402010080402018004020180402010E9
:1001A0000804020108040201010204081020408032
:1001B0000102040810204080050505050705080810
:1001C0000808020202020A0A0808040404040101E1
:1001D00001010101010103030303030303030407F6
:1001E00007070C0C0C0C0C0C0C0C0202020206068D
:1001F0000606060606060B0B0B0B0B0B0B0B000083
:100200002200250028002B002E00310034000201BE
:100210000000050108010B01000021002400270057
:100220002A002D0030003300010100000401070105
:100230000A016702BC0611241FBECFEFD1E2DEBF68
:10024000CDBF00E00CBF12E0A0E0B2E0E0EBF3E1D4
:1002500000E00BBF02C007900D92A831B107D9F79B
:1002600022E0A8E1B2E001C01D92AE3EB207E1F784
:1002700012E0C6E3D2E000E006C022970109FE01C9
:100280000BBF0E94C309C233D10780E00807A9F75A
:1002900024D60C94D609B4CE26E040E855E260E0BE
:1002A00070E081E592E0A0D460E086E320D361E0D5
:1002B00083E01DC34F925F926F927F928F929F92C5
:1002C000AF92BF92CF92DF92EF92FF920F931F9364
:1002D000CF93DF9300D01F92CDB7DEB788E1882E91
:1002E00082E0982E80E090E0A8ECB2E4F40180A7D0
:1002F00091A7A2A7B3A786E3BFD1BC01882777FD4A
:100300008095982F1F921F921F9224E62F93A12C65
:10031000B12C6501EE24EA9413E0F12E00E010E028
:1003200020E030E0A90193D5E2D69B01AC01D401D5
:1003300014966D937D938D939C93179760914002D3
:10034000709141028091420290914302D0D5F40114
:10035000608371838283938321D104E412E0D80106
:10036000CD90DD90ED90FC906C197D098E099F0970
:10037000BCD620E030E04AE754E41ED66B017C0195
:100380000DD1F8016083718382839383D4014D90F2
:100390005D906D907C9020912402309125024091D7
:1003A000260250912702C301B2012DD74B015C01F7
:1003B0006093300270933102809332029093330243
:1003C00004E312E0209128023091290240912A0290
:1003D00050912B02C301B20116D7A701960113D782
:1003E000F801208131814281538182D52B013C016A
:1003F000D8016D937D938D939C93139780911C02EC
:1004000090911D02A0911E02B0911F0289839A83D0
:10041000AB83BC8300E212E09C01AD01D8016D9179
:100420007D918D919C9163D520912C0230912D026C
:1004300040912E0250912F02E6D6A7019601BCD51D
:100440006B017C01609338027093390280933A0209
:1004500090933B0289819A81AB81BC81F8018083B2
:100460009183A283B383A3019201C501B40140D556
:10047000A70196013DD560933C0270933D028093A5
:100480003E0290933F0220E030E048E452E430D551
:10049000FBD570930502609304020F900F900F90AC
:1004A0000F9083E00F900F900F900F90DF91CF91FE
:1004B0001F910F91FF90EF90DF90CF90BF90AF9082
:1004C0009F908F907F906F905F904F90FAC080E0E8
:1004D00090E0A0E8BFE38093240290932502A093CC
:1004E0002602B09327028093280290932902A093BA
:1004F0002A02B0932B0280932C0290932D02A0939A
:100500002E02B0932F0208951F920F920FB60F92F2
:1005100011242F933F938F939F93AF93BF93809119
:10052000490290914A02A0914B02B0914C02309145
:10053000480223E0230F2D3720F40196A11DB11DA1
:1005400005C026E8230F0296A11DB11D2093480285
:100550008093490290934A02A0934B02B0934C02BD
:1005600080914D0290914E02A0914F02B0915002A5
:100570000196A11DB11D80934D0290934E02A09350
:100580004F02B0935002BF91AF919F918F913F91D5
:100590002F910F900FBE0F901F9018952FB7F894C2
:1005A0006091490270914A0280914B0290914C02F5
:1005B0002FBF0895789484B5826084BD84B581602E
:1005C00084BD85B5826085BD85B5816085BDEEE65B
:1005D000F0E0808181608083E1E8F0E0108280813A
:1005E00082608083808181608083E0E8F0E08081A8
:1005F00081608083E1EBF0E0808184608083E0EBC8
:10060000F0E0808181608083E1E9F0E080818260B8
:100610008083808181608083E0E9F0E08081816077
:100620008083E1EAF0E08081826080838081816064
:100630008083E0EAF0E0808181608083E1E2F1E0A4
:10064000808182608083808181608083E0E2F1E04C
:10065000808181608083EAE7F0E08081846080832C
:1006600080818260808380818160808380818068D6
:1006700080831092C1000895863308F0865320913C
:100680007B00982F9870277F922B90937B00877028
:100690002091060290E4299F90011124822B8093DF
:1006A0007C0080917A00806480937A0080917A0047
:1006B00086FDFCCF809178002091790090E0922B0C
:1006C00008951F93CF93DF93182FEB0161E00FD1B3
:1006D000209711F460E004C0CF3FD10531F461E010
:1006E000812FDF91CF911F913BC1E12FF0E0E45DBD
:1006F000FE4F449150E0FA013197E231F10508F0E4
:100700009AC0EE58FF4F2FC684B5806884BDC7BD20
:1007100097C084B5806284BDC8BD92C080918000BE
:10072000806880938000D0938900C093880088C03F
:1007300080918000806280938000D0938B00C09372
:100740008A007EC080918000886080938000D09372
:100750008D00C0938C0074C08091B000806880933D
:10076000B000C093B3006CC08091B00080628093F1
:10077000B000C093B40064C0809190008068809302
:100780009000D0939900C09398005AC08091900037
:10079000806280939000D0939B00C0939A0050C0D9
:1007A00080919000886080939000D0939D00C093CA
:1007B0009C0046C08091A00080688093A00080913A
:1007C000A0008F7B8093A000D093A900C093A800C5
:1007D00037C08091A00080628093A000D093AB00CE
:1007E000C093AA002DC08091A00088608093A000D3
:1007F000D093AD00C093AC0023C0809120018068ED
:1008000080932001D0932901C093280119C08091C1
:100810002001806280932001D0932B01C0932A0194
:100820000FC080912001886080932001D0932D011A
:10083000C0932C0105C0C038D1050CF050CF4ACF71
:10084000DF91CF911F91089590E0FC013197E23143
:10085000F10508F04BC0EC57FF4F85C58091800033
:100860008F7703C0809180008F7D809380000895F2
:1008700080918000877FF9CF84B58F7702C084B5DF
:100880008F7D84BD08958091B0008F7703C08091E3
:10089000B0008F7D8093B0000895809190008F7795
:1008A00007C0809190008F7D03C080919000877F6A
:1008B0008093900008958091A0008F7707C0809169
:1008C000A0008F7D03C08091A000877F8093A0004F
:1008D0000895809120018F7707C0809120018F7D3E
:1008E00003C080912001877F809320010895CF93DA
:1008F000DF9390E0FC01EE58FE4F2491FC01E85498
:10090000FE4F8491882349F190E0880F991FFC01E4
:10091000E85EFD4FA591B49182509E4FFC01C591B8
:10092000D4919FB7611108C0F8948C9120958223CF
:100930008C93888182230AC0623051F4F8948C91A0
:10094000322F309583238C938881822B888304C037
:10095000F8948C91822B8C939FBFDF91CF91089557
:100960000F931F93CF93DF931F92CDB7DEB7282F3E
:1009700030E0F901E45DFE4F8491F901EE58FE4F3D
:100980001491F901E854FE4F04910023C1F088232B
:1009900019F0698359DF6981E02FF0E0EE0FFF1F46
:1009A000E250FE4FA591B4919FB7F8948C916111DC
:1009B00003C01095812301C0812B8C939FBF0F90A2
:1009C000DF91CF911F910F910895FC01818D228DB0
:1009D00090E0805C9F4F821B91098F739927089547
:1009E000FC01918D828D981731F0828DE80FF11DF9
:1009F000858D90E008958FEF9FEF0895FC01918D14
:100A0000828D981761F0828DDF01A80FB11D5D9670
:100A10008C91928D9F5F9F73928F90E008958FEFDE
:100A20009FEF089583EB96E0892B39F080E090E00A
:100A3000892B19F098D1811125C080E090E0892B95
:100A400041F080E090E0892B21F00E9400008111AC
:100A50001CC080E090E0892B41F080E090E0892B81
:100A600021F00E940000811113C080E090E0892BEA
:100A7000A1F080E090E0892B81F00E9400008111BC
:100A80000AC008950E940000D8CF0E940000E1CF64
:100A90000E940000EACF0C9400000895FC01848DB0
:100AA000DF01A80FB11DA35ABF4F2C91848D90E098
:100AB00001968F739927848FA689B7892C93A08973
:100AC000B1898C9180648C93938D848D981306C02A
:100AD0000288F389E02D80818F7D80830895CF93F4
:100AE000DF93EC01888D8823C1F0EA89FB8980813E
:100AF00085FD05C0A889B9898C9186FD0EC00FB609
:100B000007FCF5CF808185FFF2CFA889B9898C9148
:100B100085FFEDCFCE01C2DFE8CFDF91CF91089501
:100B2000CF92DF92FF920F931F93CF93DF931F9289
:100B3000CDB7DEB76C0181E0D60158968C935897FB
:100B40005B969C915B975C968C915C97981307C021
:100B50005096ED91FC915197808185FD2DC0F60155
:100B6000038D10E00F5F1F4F0F731127F02EF6015A
:100B7000848DF81210C00FB607FCF9CFD60150963D
:100B8000ED91FC915197808185FFF1CFC60169837A
:100B900085DF6981ECCF838DE80FF11DE35AFF4FAC
:100BA0006083D6015B960C935B975296ED91FC9116
:100BB0005397808180620CC0D6015696ED91FC91CE
:100BC000579760835096ED91FC9151978081806496
:100BD000808381E090E00F90DF91CF911F910F9182
:100BE000FF90DF90CF900895BF92CF92DF92EF9267
:100BF000FF92CF93DF93EC016A017B01B22EE8896B
:100C0000F98982E08083411581EE580761057105FD
:100C100099F060E079E08DE390E0A701960165D35B
:100C20002150310941095109569547953795279526
:100C3000211580E1380790F0E889F989108260E891
:100C400074E88EE190E0A70196014FD3215031095D
:100C5000410951095695479537952795EC85FD85AE
:100C60003083EE85FF852083188EEC89FD89B08264
:100C7000EA89FB89808180618083EA89FB898081A0
:100C800088608083EA89FB89808180688083EA8923
:100C9000FB8980818F7D8083DF91CF91FF90EF90E2
:100CA000DF90CF90BF9008951F920F920FB60F92D2
:100CB00011240BB60F922F938F939F93EF93FF9373
:100CC000E0916102F09162028081E0916702F0910F
:100CD000680282FD12C0908180916A028F5F8F73DB
:100CE00020916B02821751F0E0916A02F0E0EF5A16
:100CF000FD4F958F80936A0201C08081FF91EF9133
:100D00009F918F912F910F900BBE0F900FBE0F9060
:100D10001F9018951F920F920FB60F9211240BB6C9
:100D20000F922F933F934F935F936F937F938F9384
:100D30009F93AF93BF93EF93FF9381E592E0AEDE75
:100D4000FF91EF91BF91AF919F918F917F916F91A3
:100D50005F914F913F912F910F900BBE0F900FBE5F
:100D60000F901F90189581E592E02FDE21E0892BEE
:100D700009F420E0822F0895109254021092530239
:100D800088EE93E0A0E0B0E0809355029093560285
:100D9000A0935702B09358028BE092E090935202D6
:100DA0008093510285EC90E090935E0280935D0207
:100DB00084EC90E09093600280935F0280EC90E07E
:100DC000909362028093610281EC90E090936402C0
:100DD0008093630282EC90E09093660280936502B8
:100DE00086EC90E0909368028093670210926A020A
:100DF00010926B0210926C0210926D020895CF92C5
:100E0000DF92EF92FF920F931F93CF93DF937C01BA
:100E10006A01EB0100E010E00C151D0571F069910D
:100E2000D701ED91FC910190F081E02DC70119955A
:100E3000892B19F00F5F1F4FEFCFC801DF91CF91C2
:100E40001F910F91FF90EF90DF90CF9008954F92F8
:100E50005F926F927F92AF92BF92CF92DF92EF92AA
:100E6000FF920F931F93CF93DF93CDB7DEB7290186
:100E70003A01621B730B840B950B2A893B894C89C1
:100E80005D892A193B094C095D092A8B3B8B4C8BE8
:100E90005D8B9B01AC016A897B898C899D8916D207
:100EA000E418F50806091709A801970140D22A0D90
:100EB0003B1D4C1D5D1DCA01B901DF91CF911F91F2
:100EC0000F91FF90EF90DF90CF90BF90AF907F9009
:100ED0006F905F904F90089508956CDBFDDFDCD933
:100EE000C2E1D5E0E7D92097E9F39CDDFBCF50586C
:100EF000BB27AA270ED04DC13ED130F043D120F000
:100F000031F49F3F11F41EF433C10EF4E095E7FB7A
:100F100029C1E92F4FD180F3BA17620773078407FD
:100F2000950718F071F49EF567C10EF4E0950B2E4D
:100F3000BA2FA02D0B01B90190010C01CA01A0012B
:100F40001124FF27591B99F0593F50F4503E68F186
:100F50001A16F040A22F232F342F4427585FF3CFC7
:100F6000469537952795A795F0405395C9F77EF498
:100F70001F16BA0B620B730B840BBAF09150A1F0E1
:100F8000FF0FBB1F661F771F881FC2F70EC0BA0F67
:100F9000621F731F841F48F4879577956795B795EF
:100FA000F7959E3F08F0B3CF9395880F08F09927E7
:100FB000EE0F9795879508950CD0EBC0E3D040F0E5
:100FC000DAD030F021F45F3F19F0CCC0511115C1D7
:100FD000CFC0F0D098F39923C9F35523B1F3951BF3
:100FE000550BBB27AA2762177307840738F09F5F4A
:100FF0005F4F220F331F441FAA1FA9F333D00E2EB9
:101000003AF0E0E830D091505040E695001CCAF725
:1010100029D0FE2F27D0660F771F881FBB1F2617EA
:1010200037074807AB07B0E809F0BB0B802DBF01BD
:10103000FF2793585F4F2AF09E3F510568F092C0FA
:10104000DCC05F3FECF3983EDCF3869577956795BF
:10105000B795F7959F5FC9F7880F911D969587956E
:1010600097F90895E1E0660F771F881FBB1F62178D
:1010700073078407BA0720F0621B730B840BBA0B4B
:10108000EE1F88F7E095089504D06894B111B5C0BB
:10109000089598D088F09F5790F0B92F9927B751AD
:1010A000A0F0D1F0660F771F881F991F1AF0BA952C
:1010B000C9F712C0B13081F09FD0B1E008959CC053
:1010C000672F782F8827B85F39F0B93FCCF3869522
:1010D00077956795B395D9F73EF49095809570957F
:1010E00061957F4F8F4F9F4F0895E89409C097FBFC
:1010F0003EF490958095709561957F4F8F4F9F4FEF
:101100009923A9F0F92F96E9BB279395F695879532
:1011100077956795B795F111F8CFFAF4BB0F11F4F5
:1011200060FF1BC06F5F7F4F8F4F9F4F16C088239C
:1011300011F096E911C0772321F09EE8872F762FD2
:1011400005C0662371F096E8862F70E060E02AF013
:101150009A95660F771F881FDAF7880F96958795FF
:1011600097F9089597F99F6780E870E060E0089527
:101170009FEF80EC089500240A94161617061806AF
:101180000906089500240A9412161306140605068B
:101190000895092E0394000C11F4882352F0BB0F1C
:1011A00040F4BF2B11F460FF04C06F5F7F4F8F4F7F
:1011B0009F4F089557FD9058440F551F59F05F3FBA
:1011C00071F04795880F97FB991F61F09F3F79F069
:1011D00087950895121613061406551FF2CF4695EB
:1011E000F1DF08C0161617061806991FF1CF86956D
:1011F0007105610508940895E894BB276627772751
:10120000CB0197F908950BD0C4CFB5DF28F0BADF32
:1012100018F0952309F0A6CFABCF1124EECFCADF8B
:10122000A0F3959FD1F3950F50E0551F629FF001F9
:10123000729FBB27F00DB11D639FAA27F00DB11D52
:10124000AA1F649F6627B00DA11D661F829F2227DB
:10125000B00DA11D621F739FB00DA11D621F839F62
:10126000A00D611D221F749F3327A00D611D231F38
:10127000849F600D211D822F762F6A2F11249F5786
:1012800050408AF0E1F088234AF0EE0FFF1FBB1FA9
:10129000661F771F881F91505040A9F79E3F510548
:1012A00070F060CFAACF5F3FECF3983EDCF38695F9
:1012B00077956795B795F795E7959F5FC1F7FE2BF3
:1012C000880F911D9695879597F90895DB018F9367
:1012D0009F934FD0BF91AF91A29F800D911DA39F6F
:1012E000900DB29F900D11240895A1E21A2EAA1B11
:1012F000BB1BFD010DC0AA1FBB1FEE1FFF1FA217C6
:10130000B307E407F50720F0A21BB30BE40BF50BC2
:10131000661F771F881F991F1A9469F7609570954B
:10132000809590959B01AC01BD01CF010895052EDC
:1013300097FB16F400940FD057FD05D0D6DF07FCBD
:1013400002D046F408C050954095309521953F4F06
:101350004F4F5F4F089590958095709561957F4FA1
:101360008F4F9F4F0895EE0FFF1F0590F491E02DD2
:1013700019940DD0A59F900DB49F900DA49F800D42
:10138000911D112408950790F691E02D1994A29FC4
:10139000B001B39FC001A39F700D811D1124911D49
:1013A000B29F700D811D1124911D0895F894FFCFF7
:1013B00001000000320001000000009005FF06E57A
:0813C00004FE04F0046F0500B7
:00000001FF
