:100000000C945E000C9486000C9486000C94860080
:100010000C9486000C9486000C9486000C94860048
:100020000C9486000C9486000C9486000C94860038
:100030000C9486000C9486000C9486000C94860028
:100040000C94DB010C9486000C94C5040C94F7040A
:100050000C9486000C9486000C9486000C94860008
:100060000C9486000C948600000000080002010039
:100070000003040700000000000000000102040863
:100080001020408001020408102001020408102002
:10009000040404040404040402020202020203032E
:1000A0000303030300000000250028002B000000CC
:1000B0000000240027002A00BE01270511241FBECE
:1000C000CFEFD8E0DEBFCDBF11E0A0E0B1E0E6E9C0
:1000D000F0E102C005900D92A831B107D9F721E0F7
:1000E000A8E1B1E001C01D92AE3EB207E1F710E019
:1000F000CCEBD0E004C02297FE010E943608C83B3A
:10010000D107C9F70E94DA050C9449080C94000045
:1001100026E040E855E260E070E081E591E00E9471
:10012000630460E08EE00E94110361E083E00E94BE
:10013000110380E090E0A8E4B2E480934001909342
:100140004101A0934201B093430108954F925F9201
:100150006F927F928F929F92AF92BF92CF92DF92D7
:10016000EF92FF920F931F93CF93DF9300D000D0B5
:10017000CDB7DEB78EE00E946C02BC01882777FD08
:100180008095982F1F921F921F9224E62F93A12CE7
:10019000B12C6501EE24EA9413E0F12E00E010E0AA
:1001A00020E030E0A9010E9492050E94E9069B012F
:1001B000AC0168E1A62E61E0B62ED50114962D9310
:1001C0003D934D935C93179760914001709141016D
:1001D00080914201909143010E94E905F5016083FD
:1001E0007183828393830E94250204E411E0D80185
:1001F000CD90DD90ED90FC906C197D098E099F09E2
:100200000E94E70620E030E04AE754E40E944E06F0
:100210006B017C010E942502F80160837183828357
:100220009383D5014D905D906D907C902091240139
:10023000309125014091260150912701C301B2015F
:100240000E9475074B015C0160933001709331018E
:10025000809332019093330104E311E0209128014F
:100260003091290140912A0150912B01C301B20123
:100270000E947507A70196010E947507F801208169
:100280003181428153810E94EA052B013C01D80152
:100290006D937D938D939C93139780911C01909106
:1002A0001D01A0911E01B0911F0189839A83AB8328
:1002B000BC8300E211E09C01AD01D8016D917D91FC
:1002C0008D919C910E94E90520912C0130912D0186
:1002D00040912E0150912F010E947507A7019601B0
:1002E0000E944E066B017C016093380170933901C6
:1002F00080933A0190933B0189819A81AB81BC81C3
:10030000F80180839183A283B383A3019201C50185
:10031000B4010E94EA05A70196010E94EA056093D4
:100320003C0170933D0180933E0190933F0120E09A
:1003300030E048E452E40E94EA050E94B606709359
:100340000501609304010F900F900F900F9083E0D0
:100350000F900F900F900F90DF91CF911F910F9101
:10036000FF90EF90DF90CF90BF90AF909F908F90D5
:100370007F906F905F904F900C94890280E090E0A6
:10038000A0E8BFE38093240190932501A093260168
:10039000B0932701109228011092290110922A018E
:1003A00010922B0110922C0110922D0110922E010F
:1003B00010922F0108951F920F920FB60F921124E1
:1003C0002F933F938F939F93AF93BF938091490156
:1003D00090914A01A0914B01B0914C01309148019C
:1003E00023E0230F2D3720F40196A11DB11D05C078
:1003F00026E8230F0296A11DB11D2093480180938A
:10040000490190934A01A0934B01B0934C01809114
:100410004D0190914E01A0914F01B0915001019674
:10042000A11DB11D80934D0190934E01A0934F01EA
:10043000B0935001BF91AF919F918F913F912F91B8
:100440000F900FBE0F901F9018952FB7F8946091E2
:10045000490170914A0180914B0190914C012FBF4D
:100460000895789484B5826084BD84B5816084BD2C
:1004700085B5826085BD85B5816085BDEEE6F0E01D
:10048000808181608083E1E8F0E010828081826079
:100490008083808181608083E0E8F0E080818160FA
:1004A0008083E1EBF0E0808184608083E0EBF0E02A
:1004B000808181608083EAE7F0E0808184608083CE
:1004C0008081826080838081816080838081806878
:1004D00080831092C10008958E3008F08E5087708E
:1004E0002091060190E4299F90011124822B809392
:1004F0007C0080917A00806480937A0080917A00F9
:1005000086FDFCCF809178002091790090E0922BBD
:1005100008951F93CF93DF93182FEB0161E00E94A2
:100520001103209711F460E004C0CF3FD10539F4E6
:1005300061E0812FDF91CF911F910C944A03E12F4D
:10054000F0E0E859FF4FE491E330F9F048F4E1308E
:10055000B9F0E230A1F584B5806284BDC8BD34C075
:10056000E730E9F0E83019F1E43049F58091800096
:10057000806280938000D0938B00C0938A0024C057
:1005800084B5806884BDC7BD1FC08091800080682D
:1005900080938000D0938900C093880015C080911B
:1005A000B00080688093B000C093B3000DC080910C
:1005B000B00080628093B000C093B40005C0C03822
:1005C000D1050CF0B5CFAFCFDF91CF911F9108953A
:1005D000833081F028F4813099F08230A1F00895C1
:1005E0008730A9F08830B9F08430D1F48091800050
:1005F0008F7D03C0809180008F7780938000089565
:1006000084B58F7702C084B58F7D84BD08958091B5
:10061000B0008F7703C08091B0008F7D8093B000D1
:100620000895CF93DF9390E0FC01E458FF4F2491AD
:10063000FC01E057FF4F8491882349F190E0880F37
:10064000991FFC01E255FF4FA591B4918C559F4F26
:10065000FC01C591D4919FB7611108C0F8948C91A9
:10066000209582238C93888182230AC0623051F4C2
:10067000F8948C91322F309583238C938881822B30
:10068000888304C0F8948C91822B8C939FBFDF9158
:10069000CF9108950F931F93CF93DF931F92CDB700
:1006A000DEB7282F30E0F901E859FF4F8491F901B6
:1006B000E458FF4F1491F901E057FF4F04910023D4
:1006C000C9F0882321F069830E94E8026981E02F44
:1006D000F0E0EE0FFF1FEC55FF4FA591B4919FB7CF
:1006E000F8948C91611103C01095812301C0812B76
:1006F0008C939FBF0F90DF91CF911F910F91089521
:10070000FC01818D228D90E0805C9F4F821B9109BE
:100710008F7399270895FC01918D828D981731F080
:10072000828DE80FF11D858D90E008958FEF9FEF8A
:100730000895FC01918D828D981761F0828DDF0103
:10074000A80FB11D5D968C91928D9F5F9F73928FC4
:1007500090E008958FEF9FEF08958DE195E0892B4C
:1007600049F080E090E0892B29F00E941D0581115D
:100770000C9400000895FC01848DDF01A80FB11DC9
:10078000A35ABF4F2C91848D90E001968F739927C7
:10079000848FA689B7892C93A089B1898C918064B4
:1007A0008C93938D848D981306C00288F389E02D75
:1007B00080818F7D80830895CF93DF93EC01888DB6
:1007C0008823C9F0EA89FB89808185FD05C0A88955
:1007D000B9898C9186FD0FC00FB607FCF5CF8081DB
:1007E00085FFF2CFA889B9898C9185FFEDCFCE0125
:1007F0000E94BB03E7CFDF91CF910895CF92DF92A4
:10080000FF920F931F93CF93DF931F92CDB7DEB765
:100810006C0181E0D60158968C9358975B969C9119
:100820005B975C968C915C97981307C05096ED91FE
:10083000FC915197808185FD2EC0F601038D10E05B
:100840000F5F1F4F0F731127F02EF601848DF812E2
:1008500011C00FB607FCF9CFD6015096ED91FC916F
:100860005197808185FFF1CFC60169830E94BB0348
:100870006981EBCF838DE80FF11DE35AFF4F608351
:10088000D6015B960C935B975296ED91FC91539732
:10089000808180620CC0D6015696ED91FC915797ED
:1008A00060835096ED91FC915197808180648083A4
:1008B00081E090E00F90DF91CF911F910F91FF9019
:1008C000DF90CF900895BF92CF92DF92EF92FF9288
:1008D000CF93DF93EC016A017B01B22EE889F9899D
:1008E00082E08083411581EE580761057105A1F012
:1008F00060E079E08DE390E0A70196010E94E807AF
:100900002150310941095109569547953795279549
:10091000211580E1380798F0E889F989108260E8AC
:1009200074E88EE190E0A70196010E94E80721504B
:100930003109410951095695479537952795EC8519
:10094000FD853083EE85FF852083188EEC89FD8937
:10095000B082EA89FB89808180618083EA89FB8992
:10096000808188608083EA89FB89808180688083B8
:10097000EA89FB8980818F7D8083DF91CF91FF9011
:10098000EF90DF90CF90BF9008951F920F920FB617
:100990000F9211242F938F939F93EF93FF93E091E6
:1009A0006101F09162018081E0916701F09168013D
:1009B00082FD12C0908180916A018F5F8F732091B8
:1009C0006B01821751F0E0916A01F0E0EF5AFE4F9F
:1009D000958F80936A0101C08081FF91EF919F9173
:1009E0008F912F910F900FBE0F901F9018951F920F
:1009F0000F920FB60F9211242F933F934F935F9353
:100A00006F937F938F939F93AF93BF93EF93FF93D6
:100A100081E591E00E94BB03FF91EF91BF91AF91FF
:100A20009F918F917F916F915F914F913F912F9106
:100A30000F900FBE0F901F90189581E591E00E94D6
:100A4000800321E0892B09F420E0822F0895109281
:100A500054011092530188EE93E0A0E0B0E080933F
:100A6000550190935601A0935701B09358018BE024
:100A700091E0909352018093510185EC90E0909326
:100A80005E0180935D0184EC90E09093600180931F
:100A90005F0180EC90E0909362018093610181ECB2
:100AA00090E0909364018093630182EC90E09093D6
:100AB00066018093650186EC90E0909368018093D5
:100AC000670110926A0110926B0110926C011092F2
:100AD0006D010895CF92DF92EF92FF920F931F93D3
:100AE000CF93DF937C016A01EB0100E010E00C156D
:100AF0001D0571F06991D701ED91FC910190F08194
:100B0000E02DC7010995892B19F00F5F1F4FEFCF1B
:100B1000C801DF91CF911F910F91FF90EF90DF906F
:100B2000CF9008954F925F926F927F92AF92BF9253
:100B3000CF92DF92EF92FF920F931F93CF93DF93A9
:100B4000CDB7DEB729013A01621B730B840B950BFD
:100B500029893A894B895C892A193B094C095D0925
:100B6000298B3A8B4B8B5C8B9B01AC0169897A8911
:100B70008B899C890E94D807E418F5080609170993
:100B8000A80197010E940A082A0D3B1D4C1D5D1DFE
:100B9000CA01B901DF91CF911F910F91FF90EF90A2
:100BA000DF90CF90BF90AF907F906F905F904F900D
:100BB000089508950E9431020E94D9050E9488007C
:100BC000CDEAD3E00E94A6002097E1F30E94AD0396
:100BD000F9CF5058BB27AA270ED04DC13ED130F0D7
:100BE00043D120F031F49F3F11F41EF433C10EF4D1
:100BF000E095E7FB29C1E92F4FD180F3BA176207CF
:100C000073078407950718F071F49EF567C10EF419
:100C1000E0950B2EBA2FA02D0B01B90190010C010C
:100C2000CA01A0011124FF27591B99F0593F50F424
:100C3000503E68F11A16F040A22F232F342F44277C
:100C4000585FF3CF469537952795A795F040539574
:100C5000C9F77EF41F16BA0B620B730B840BBAF044
:100C60009150A1F0FF0FBB1F661F771F881FC2F7AF
:100C70000EC0BA0F621F731F841F48F487957795C3
:100C80006795B795F7959E3F08F0B3CF9395880F7A
:100C900008F09927EE0F9795879508950CD0EBC033
:100CA000E3D040F0DAD030F021F45F3F19F0CCC04F
:100CB000511115C1CFC0F0D098F39923C9F3552332
:100CC000B1F3951B550BBB27AA276217730784073F
:100CD00038F09F5F5F4F220F331F441FAA1FA9F3F5
:100CE00033D00E2E3AF0E0E830D091505040E695E7
:100CF000001CCAF729D0FE2F27D0660F771F881F48
:100D0000BB1F261737074807AB07B0E809F0BB0B36
:100D1000802DBF01FF2793585F4F2AF09E3F51055A
:100D200068F092C0DCC05F3FECF3983EDCF3869540
:100D300077956795B795F7959F5FC9F7880F911DD0
:100D40009695879597F90895E1E0660F771F881FBC
:100D5000BB1F621773078407BA0720F0621B730B6F
:100D6000840BBA0BEE1F88F7E095089504D06894C1
:100D7000B111B5C0089598D088F09F5790F0B92F61
:100D80009927B751A0F0D1F0660F771F881F991FE0
:100D90001AF0BA95C9F712C0B13081F09FD0B1E016
:100DA00008959CC0672F782F8827B85F39F0B93F26
:100DB000CCF3869577956795B395D9F73EF49095E2
:100DC0008095709561957F4F8F4F9F4F0895E89460
:100DD00009C097FB3EF490958095709561957F4F83
:100DE0008F4F9F4F9923A9F0F92F96E9BB27939531
:100DF000F695879577956795B795F111F8CFFAF441
:100E0000BB0F11F460FF1BC06F5F7F4F8F4F9F4F71
:100E100016C0882311F096E911C0772321F09EE8CF
:100E2000872F762F05C0662371F096E8862F70E035
:100E300060E02AF09A95660F771F881FDAF7880F0F
:100E40009695879597F9089597F99F6780E870E0E0
:100E500060E008959FEF80EC089500240A94161630
:100E6000170618060906089500240A941216130698
:100E7000140605060895092E0394000C11F4882326
:100E800052F0BB0F40F4BF2B11F460FF04C06F5F42
:100E90007F4F8F4F9F4F089557FD9058440F551F18
:100EA00059F05F3F71F04795880F97FB991F61F0EC
:100EB0009F3F79F087950895121613061406551F63
:100EC000F2CF4695F1DF08C0161617061806991FCF
:100ED000F1CF86957105610508940895E894BB27C4
:100EE00066277727CB0197F908950BD0C4CFB5DFDC
:100EF00028F0BADF18F0952309F0A6CFABCF112464
:100F0000EECFCADFA0F3959FD1F3950F50E0551FA8
:100F1000629FF001729FBB27F00DB11D639FAA274E
:100F2000F00DB11DAA1F649F6627B00DA11D661F9D
:100F3000829F2227B00DA11D621F739FB00DA11DBE
:100F4000621F839FA00D611D221F749F3327A00D78
:100F5000611D231F849F600D211D822F762F6A2F14
:100F600011249F5750408AF0E1F088234AF0EE0F99
:100F7000FF1FBB1F661F771F881F91505040A9F7A6
:100F80009E3F510570F060CFAACF5F3FECF3983ED3
:100F9000DCF3869577956795B795F795E7959F5F0D
:100FA000C1F7FE2B880F911D9695879597F90895A7
:100FB000DB018F939F930E942908BF91AF91A29F5D
:100FC000800D911DA39F900DB29F900D1124089547
:100FD000A1E21A2EAA1BBB1BFD010DC0AA1FBB1F3D
:100FE000EE1FFF1FA217B307E407F50720F0A21BAF
:100FF000B30BE40BF50B661F771F881F991F1A941C
:1010000069F760957095809590959B01AC01BD0145
:10101000CF010895052E97FB1EF400940E9421082D
:1010200057FD07D00E94E80707FC03D04EF40C944C
:10103000210850954095309521953F4F4F4F5F4F78
:10104000089590958095709561957F4F8F4F9F4F34
:1010500008950E943A08A59F900DB49F900DA49FFB
:10106000800D911D11240895EE0FFF1F0590F4913E
:10107000E02D0994A29FB001B39FC001A39F700D02
:10108000811D1124911DB29F700D811D1124911D90
:061090000895F894FFCF63
:101096000100000032000100000000FE036A058026
:0810A6000399038B03DC030036
:107E0000112484B714BE81FFF0D085E080938100F7
:107E100082E08093C00088E18093C10086E0809377
:107E2000C20080E18093C4008EE0C9D0259A86E02C
:107E300020E33CEF91E0309385002093840096BBD3
:107E4000B09BFECF1D9AA8958150A9F7CC24DD24C4
:107E500088248394B5E0AB2EA1E19A2EF3E0BF2EE7
:107E6000A2D0813461F49FD0082FAFD0023811F036
:107E7000013811F484E001C083E08DD089C08234E0
:107E800011F484E103C0853419F485E0A6D080C0E4
:107E9000853579F488D0E82EFF2485D0082F10E0AE
:107EA000102F00270E291F29000F111F8ED06801E7
:107EB0006FC0863521F484E090D080E0DECF843638
:107EC00009F040C070D06FD0082F6DD080E0C81688
:107ED00080E7D80618F4F601B7BEE895C0E0D1E017
:107EE00062D089930C17E1F7F0E0CF16F0E7DF06D8
:107EF00018F0F601B7BEE89568D007B600FCFDCFD4
:107F0000A601A0E0B1E02C9130E011968C91119780
:107F100090E0982F8827822B932B1296FA010C0160
:107F200087BEE89511244E5F5F4FF1E0A038BF0790
:107F300051F7F601A7BEE89507B600FCFDCF97BE46
:107F4000E89526C08437B1F42ED02DD0F82E2BD052
:107F50003CD0F601EF2C8F010F5F1F4F84911BD097
:107F6000EA94F801C1F70894C11CD11CFA94CF0C13
:107F7000D11C0EC0853739F428D08EE10CD085E9AC
:107F80000AD08FE07ACF813511F488E018D01DD067
:107F900080E101D065CF982F8091C00085FFFCCF94
:107FA0009093C60008958091C00087FFFCCF809118
:107FB000C00084FD01C0A8958091C6000895E0E648
:107FC000F0E098E1908380830895EDDF803219F02E
:107FD00088E0F5DFFFCF84E1DECF1F93182FE3DFCA
:107FE0001150E9F7F2DF1F91089580E0E8DFEE27F6
:047FF000FF270994CA
:027FFE00040479
:0400000300007E007B
:00000001FF
